{
  "_format": "hh-sol-artifact-1",
  "contractName": "Transactions",
  "sourceName": "contracts/Transactions.sol",
  "abi": [
    {
      "anonymous": false,
      "inputs": [
        {
          "indexed": false,
          "internalType": "address",
          "name": "from",
          "type": "address"
        },
        {
          "indexed": false,
          "internalType": "address",
          "name": "receiver",
          "type": "address"
        },
        {
          "indexed": false,
          "internalType": "uint256",
          "name": "amount",
          "type": "uint256"
        },
        {
          "indexed": false,
          "internalType": "string",
          "name": "message",
          "type": "string"
        },
        {
          "indexed": false,
          "internalType": "uint256",
          "name": "timestamp",
          "type": "uint256"
        },
        {
          "indexed": false,
          "internalType": "string",
          "name": "keyword",
          "type": "string"
        }
      ],
      "name": "Transfer",
      "type": "event"
    },
    {
      "inputs": [
        {
          "internalType": "address payable",
          "name": "receiver",
          "type": "address"
        },
        {
          "internalType": "uint256",
          "name": "amount",
          "type": "uint256"
        },
        {
          "internalType": "string",
          "name": "message",
          "type": "string"
        },
        {
          "internalType": "string",
          "name": "keyword",
          "type": "string"
        }
      ],
      "name": "addToBlockchain",
      "outputs": [],
      "stateMutability": "payable",
      "type": "function"
    },
    {
      "inputs": [],
      "name": "getAllTransactions",
      "outputs": [
        {
          "components": [
            {
              "internalType": "address",
              "name": "sender",
              "type": "address"
            },
            {
              "internalType": "address",
              "name": "receiver",
              "type": "address"
            },
            {
              "internalType": "uint256",
              "name": "amount",
              "type": "uint256"
            },
            {
              "internalType": "string",
              "name": "message",
              "type": "string"
            },
            {
              "internalType": "uint256",
              "name": "timestamp",
              "type": "uint256"
            },
            {
              "internalType": "string",
              "name": "keyword",
              "type": "string"
            }
          ],
          "internalType": "struct Transactions.TransferStruct[]",
          "name": "",
          "type": "tuple[]"
        }
      ],
      "stateMutability": "view",
      "type": "function"
    },
    {
      "inputs": [],
      "name": "getTransactionCount",
      "outputs": [
        {
          "internalType": "uint256",
          "name": "",
          "type": "uint256"
        }
      ],
      "stateMutability": "view",
      "type": "function"
    }
  ],
  "bytecode": "0x608060405234801561001057600080fd5b50610eff806100206000396000f3fe6080604052600436106100345760003560e01c806327506f53146100395780632e7700f014610064578063cc2d7ead1461008f575b600080fd5b34801561004557600080fd5b5061004e6100ab565b60405161005b919061077e565b60405180910390f35b34801561007057600080fd5b506100796102ee565b60405161008691906107af565b60405180910390f35b6100a960048036038101906100a4919061097d565b6102fa565b005b60606000805480602002602001604051908101604052809291908181526020016000905b828210156102e557838290600052602060002090600602016040518060c00160405290816000820160009054906101000a900473ffffffffffffffffffffffffffffffffffffffff1673ffffffffffffffffffffffffffffffffffffffff1673ffffffffffffffffffffffffffffffffffffffff1681526020016001820160009054906101000a900473ffffffffffffffffffffffffffffffffffffffff1673ffffffffffffffffffffffffffffffffffffffff1673ffffffffffffffffffffffffffffffffffffffff168152602001600282015481526020016003820180546101b890610a4b565b80601f01602080910402602001604051908101604052809291908181526020018280546101e490610a4b565b80156102315780601f1061020657610100808354040283529160200191610231565b820191906000526020600020905b81548152906001019060200180831161021457829003601f168201915b505050505081526020016004820154815260200160058201805461025490610a4b565b80601f016020809104026020016040519081016040528092919081815260200182805461028090610a4b565b80156102cd5780601f106102a2576101008083540402835291602001916102cd565b820191906000526020600020905b8154815290600101906020018083116102b057829003601f168201915b505050505081525050815260200190600101906100cf565b50505050905090565b60008080549050905090565b60006040518060c001604052803373ffffffffffffffffffffffffffffffffffffffff1681526020018673ffffffffffffffffffffffffffffffffffffffff16815260200185815260200184815260200142815260200183815250908060018154018082558091505060019003906000526020600020906006020160009091909190915060008201518160000160006101000a81548173ffffffffffffffffffffffffffffffffffffffff021916908373ffffffffffffffffffffffffffffffffffffffff16021790555060208201518160010160006101000a81548173ffffffffffffffffffffffffffffffffffffffff021916908373ffffffffffffffffffffffffffffffffffffffff16021790555060408201518160020155606082015181600301908161042b9190610c28565b506080820151816004015560a082015181600501908161044b9190610c28565b50505060008473ffffffffffffffffffffffffffffffffffffffff163460405161047490610d2b565b60006040518083038185875af1925050503d80600081146104b1576040519150601f19603f3d011682016040523d82523d6000602084013e6104b6565b606091505b50509050806104fa576040517f08c379a00000000000000000000000000000000000000000000000000000000081526004016104f190610d9d565b60405180910390fd5b7f416cfa4330a4565f45c2fd2dd4826a83a37443aba2ce6f79477c7355afac35fa33868686428760405161053396959493929190610e5a565b60405180910390a15050505050565b600081519050919050565b600082825260208201905092915050565b6000819050602082019050919050565b600073ffffffffffffffffffffffffffffffffffffffff82169050919050565b60006105998261056e565b9050919050565b6105a98161058e565b82525050565b6000819050919050565b6105c2816105af565b82525050565b600081519050919050565b600082825260208201905092915050565b60005b838110156106025780820151818401526020810190506105e7565b60008484015250505050565b6000601f19601f8301169050919050565b600061062a826105c8565b61063481856105d3565b93506106448185602086016105e4565b61064d8161060e565b840191505092915050565b600060c08301600083015161067060008601826105a0565b50602083015161068360208601826105a0565b50604083015161069660408601826105b9565b50606083015184820360608601526106ae828261061f565b91505060808301516106c360808601826105b9565b5060a083015184820360a08601526106db828261061f565b9150508091505092915050565b60006106f48383610658565b905092915050565b6000602082019050919050565b600061071482610542565b61071e818561054d565b9350836020820285016107308561055e565b8060005b8581101561076c578484038952815161074d85826106e8565b9450610758836106fc565b925060208a01995050600181019050610734565b50829750879550505050505092915050565b600060208201905081810360008301526107988184610709565b905092915050565b6107a9816105af565b82525050565b60006020820190506107c460008301846107a0565b92915050565b6000604051905090565b600080fd5b600080fd5b60006107e98261056e565b9050919050565b6107f9816107de565b811461080457600080fd5b50565b600081359050610816816107f0565b92915050565b610825816105af565b811461083057600080fd5b50565b6000813590506108428161081c565b92915050565b600080fd5b600080fd5b7f4e487b7100000000000000000000000000000000000000000000000000000000600052604160045260246000fd5b61088a8261060e565b810181811067ffffffffffffffff821117156108a9576108a8610852565b5b80604052505050565b60006108bc6107ca565b90506108c88282610881565b919050565b600067ffffffffffffffff8211156108e8576108e7610852565b5b6108f18261060e565b9050602081019050919050565b82818337600083830152505050565b600061092061091b846108cd565b6108b2565b90508281526020810184848401111561093c5761093b61084d565b5b6109478482856108fe565b509392505050565b600082601f83011261096457610963610848565b5b813561097484826020860161090d565b91505092915050565b60008060008060808587031215610997576109966107d4565b5b60006109a587828801610807565b94505060206109b687828801610833565b935050604085013567ffffffffffffffff8111156109d7576109d66107d9565b5b6109e38782880161094f565b925050606085013567ffffffffffffffff811115610a0457610a036107d9565b5b610a108782880161094f565b91505092959194509250565b7f4e487b7100000000000000000000000000000000000000000000000000000000600052602260045260246000fd5b60006002820490506001821680610a6357607f821691505b602082108103610a7657610a75610a1c565b5b50919050565b60008190508160005260206000209050919050565b60006020601f8301049050919050565b600082821b905092915050565b600060088302610ade7fffffffffffffffffffffffffffffffffffffffffffffffffffffffffffffffff82610aa1565b610ae88683610aa1565b95508019841693508086168417925050509392505050565b6000819050919050565b6000610b25610b20610b1b846105af565b610b00565b6105af565b9050919050565b6000819050919050565b610b3f83610b0a565b610b53610b4b82610b2c565b848454610aae565b825550505050565b600090565b610b68610b5b565b610b73818484610b36565b505050565b5b81811015610b9757610b8c600082610b60565b600181019050610b79565b5050565b601f821115610bdc57610bad81610a7c565b610bb684610a91565b81016020851015610bc5578190505b610bd9610bd185610a91565b830182610b78565b50505b505050565b600082821c905092915050565b6000610bff60001984600802610be1565b1980831691505092915050565b6000610c188383610bee565b9150826002028217905092915050565b610c31826105c8565b67ffffffffffffffff811115610c4a57610c49610852565b5b610c548254610a4b565b610c5f828285610b9b565b600060209050601f831160018114610c925760008415610c80578287015190505b610c8a8582610c0c565b865550610cf2565b601f198416610ca086610a7c565b60005b82811015610cc857848901518255600182019150602085019450602081019050610ca3565b86831015610ce55784890151610ce1601f891682610bee565b8355505b6001600288020188555050505b505050505050565b600081905092915050565b50565b6000610d15600083610cfa565b9150610d2082610d05565b600082019050919050565b6000610d3682610d08565b9150819050919050565b600082825260208201905092915050565b7f4661696c656420746f2073656e64204574686572000000000000000000000000600082015250565b6000610d87601483610d40565b9150610d9282610d51565b602082019050919050565b60006020820190508181036000830152610db681610d7a565b9050919050565b610dc68161058e565b82525050565b6000610de7610de2610ddd8461056e565b610b00565b61056e565b9050919050565b6000610df982610dcc565b9050919050565b6000610e0b82610dee565b9050919050565b610e1b81610e00565b82525050565b6000610e2c826105c8565b610e368185610d40565b9350610e468185602086016105e4565b610e4f8161060e565b840191505092915050565b600060c082019050610e6f6000830189610dbd565b610e7c6020830188610e12565b610e8960408301876107a0565b8181036060830152610e9b8186610e21565b9050610eaa60808301856107a0565b81810360a0830152610ebc8184610e21565b905097965050505050505056fea2646970667358221220816cbc763039777c02901d4cd010411b1e05a044565bd8b3247f3baaa631c87464736f6c63430008110033",
  "linkReferences": {},
  "deployedLinkReferences": {}
}